{
  "_format": "hh-sol-artifact-1",
  "contractName": "TokenConverter",
  "sourceName": "contracts/TokenConverter.sol",
  "abi": [
    {
      "inputs": [
        {
          "internalType": "address[]",
          "name": "inputTokens",
          "type": "address[]"
        },
        {
          "internalType": "address",
          "name": "outputTokenAddress",
          "type": "address"
        }
      ],
      "stateMutability": "nonpayable",
      "type": "constructor"
    },
    {
      "inputs": [
        {
          "internalType": "address",
          "name": "owner",
          "type": "address"
        }
      ],
      "name": "OwnableInvalidOwner",
      "type": "error"
    },
    {
      "inputs": [
        {
          "internalType": "address",
          "name": "account",
          "type": "address"
        }
      ],
      "name": "OwnableUnauthorizedAccount",
      "type": "error"
    },
    {
      "inputs": [
        {
          "internalType": "address",
          "name": "token",
          "type": "address"
        }
      ],
      "name": "SafeERC20FailedOperation",
      "type": "error"
    },
    {
      "anonymous": false,
      "inputs": [
        {
          "indexed": true,
          "internalType": "address",
          "name": "previousToken",
          "type": "address"
        },
        {
          "indexed": true,
          "internalType": "address",
          "name": "newToken",
          "type": "address"
        }
      ],
      "name": "OutputTokenUpdated",
      "type": "event"
    },
    {
      "anonymous": false,
      "inputs": [
        {
          "indexed": true,
          "internalType": "address",
          "name": "previousOwner",
          "type": "address"
        },
        {
          "indexed": true,
          "internalType": "address",
          "name": "newOwner",
          "type": "address"
        }
      ],
      "name": "OwnershipTransferred",
      "type": "event"
    },
    {
      "anonymous": false,
      "inputs": [
        {
          "indexed": true,
          "internalType": "address",
          "name": "token",
          "type": "address"
        }
      ],
      "name": "SupportedTokenAdded",
      "type": "event"
    },
    {
      "anonymous": false,
      "inputs": [
        {
          "indexed": true,
          "internalType": "address",
          "name": "token",
          "type": "address"
        }
      ],
      "name": "SupportedTokenRemoved",
      "type": "event"
    },
    {
      "anonymous": false,
      "inputs": [
        {
          "indexed": true,
          "internalType": "address",
          "name": "user",
          "type": "address"
        },
        {
          "indexed": true,
          "internalType": "address",
          "name": "inputToken",
          "type": "address"
        },
        {
          "indexed": false,
          "internalType": "uint256",
          "name": "amount",
          "type": "uint256"
        }
      ],
      "name": "TokenConverted",
      "type": "event"
    },
    {
      "inputs": [
        {
          "internalType": "address",
          "name": "token",
          "type": "address"
        }
      ],
      "name": "addSupportedToken",
      "outputs": [],
      "stateMutability": "nonpayable",
      "type": "function"
    },
    {
      "inputs": [
        {
          "internalType": "address",
          "name": "inputToken",
          "type": "address"
        },
        {
          "internalType": "uint256",
          "name": "amount",
          "type": "uint256"
        }
      ],
      "name": "convert",
      "outputs": [],
      "stateMutability": "nonpayable",
      "type": "function"
    },
    {
      "inputs": [],
      "name": "outputToken",
      "outputs": [
        {
          "internalType": "contract MintableToken",
          "name": "",
          "type": "address"
        }
      ],
      "stateMutability": "view",
      "type": "function"
    },
    {
      "inputs": [],
      "name": "owner",
      "outputs": [
        {
          "internalType": "address",
          "name": "",
          "type": "address"
        }
      ],
      "stateMutability": "view",
      "type": "function"
    },
    {
      "inputs": [
        {
          "internalType": "address",
          "name": "token",
          "type": "address"
        }
      ],
      "name": "removeSupportedToken",
      "outputs": [],
      "stateMutability": "nonpayable",
      "type": "function"
    },
    {
      "inputs": [],
      "name": "renounceOwnership",
      "outputs": [],
      "stateMutability": "nonpayable",
      "type": "function"
    },
    {
      "inputs": [
        {
          "internalType": "address",
          "name": "newOutputToken",
          "type": "address"
        }
      ],
      "name": "setOutputToken",
      "outputs": [],
      "stateMutability": "nonpayable",
      "type": "function"
    },
    {
      "inputs": [
        {
          "internalType": "address",
          "name": "",
          "type": "address"
        }
      ],
      "name": "supportedTokens",
      "outputs": [
        {
          "internalType": "bool",
          "name": "",
          "type": "bool"
        }
      ],
      "stateMutability": "view",
      "type": "function"
    },
    {
      "inputs": [
        {
          "internalType": "address",
          "name": "newOwner",
          "type": "address"
        }
      ],
      "name": "transferOwnership",
      "outputs": [],
      "stateMutability": "nonpayable",
      "type": "function"
    }
  ],
  "bytecode": "0x60806040523461023b5761096b8038038061001981610256565b92833981019060408183031261023b5780516001600160401b03811161023b5781019180601f8401121561023b578251926001600160401b038411610240578360051b9060208061006b818501610256565b80978152019282010192831161023b57602001905b82821061022357846100946020860161027b565b331561020d5760008054336001600160a01b0319821681178355604051939290916001600160a01b0316907f8be0079c531659141344cd1fd0a4f28419497f9722a3daafe3b4186f6b6457e09080a36001600160a01b03169081156101bf5750600280546001600160a01b03191691909117905560005b81518110156101b0576001600160a01b03610126828461028f565b511615610160576001906001600160a01b03610142828561028f565b51166000528160205260406000208260ff198254161790550161010b565b60405162461bcd60e51b815260206004820152602260248201527f496e70757420746f6b656e20616464726573732063616e6e6f74206265207a65604482015261726f60f01b6064820152608490fd5b6040516106b190816102ba8239f35b62461bcd60e51b815260206004820152602360248201527f4f757470757420746f6b656e20616464726573732063616e6e6f74206265207a60448201526265726f60e81b6064820152608490fd5b631e4fbdf760e01b600052600060045260246000fd5b602080916102308461027b565b815201910190610080565b600080fd5b634e487b7160e01b600052604160045260246000fd5b6040519190601f01601f191682016001600160401b0381118382101761024057604052565b51906001600160a01b038216820361023b57565b80518210156102a35760209160051b010190565b634e487b7160e01b600052603260045260246000fdfe608080604052600436101561001357600080fd5b600090813560e01c90816367c6e39c146104255750806368c4ac26146103e65780636b5b2c31146103205780636d69fcaf1461026c578063715018a614610212578063763191901461015c5780638da5cb5b14610135578063c1d8d1d91461010c5763f2fde38b1461008457600080fd5b346101095760203660031901126101095761009d6105ff565b6100a5610652565b6001600160a01b031680156100f55781546001600160a01b03198116821783556001600160a01b03167f8be0079c531659141344cd1fd0a4f28419497f9722a3daafe3b4186f6b6457e08380a380f35b631e4fbdf760e01b82526004829052602482fd5b80fd5b50346101095780600319360112610109576002546040516001600160a01b039091168152602090f35b5034610109578060031936011261010957546040516001600160a01b039091168152602090f35b5034610109576020366003190112610109576101766105ff565b61017e610652565b6001600160a01b03168082526001602052604082205460ff16156101d757808252600160205260408220805460ff191690557fbea12876694c4055c71f74308f752b9027cf3d554194000a366abddfc239a3068280a280f35b60405162461bcd60e51b8152602060048201526013602482015272151bdad95b881b9bdd081cdd5c1c1bdc9d1959606a1b6044820152606490fd5b503461010957806003193601126101095761022b610652565b80546001600160a01b03198116825581906001600160a01b03167f8be0079c531659141344cd1fd0a4f28419497f9722a3daafe3b4186f6b6457e08280a380f35b5034610109576020366003190112610109576102866105ff565b61028e610652565b6001600160a01b031680156102db57808252600160205260408220600160ff198254161790557fd1be2e90bd3d24839d9dd94ad871068e1f9688b02fa43f2a62c9975dfa9de2d78280a280f35b60405162461bcd60e51b815260206004820152601c60248201527f546f6b656e20616464726573732063616e6e6f74206265207a65726f000000006044820152606490fd5b50346101095760203660031901126101095761033a6105ff565b610342610652565b6001600160a01b0316801561039557600280546001600160a01b0319811683179091556001600160a01b03167ffdef5fa97f9834c3ce5c25f08d33b4e5a200f1055bc73fa7b69cc974c47b7b348380a380f35b60405162461bcd60e51b815260206004820152602360248201527f4f757470757420746f6b656e20616464726573732063616e6e6f74206265207a60448201526265726f60e81b6064820152608490fd5b50346101095760203660031901126101095760209060ff906040906001600160a01b036104116105ff565b168152600184522054166040519015158152f35b90503461054d57604036600319011261054d576104406105ff565b6001600160a01b03168083526001602052604083205490916024359160ff16156105bd5750801561057957602083604051828101906323b872dd60e01b8252336024820152306044820152846064820152606481526104a060848261061a565b519082865af11561056e5782513d6105655750813b155b6105515760025483906001600160a01b0316803b1561054d5781906044604051809481936340c10f1960e01b83523360048401528760248401525af180156105425761052e575b506040519081527fa63a57952b04deaf59d4fefaee3935bb10ba9decf2d3d52a55faf551ce55dd0160203392a380f35b8361053b9194929461061a565b91386104fe565b6040513d86823e3d90fd5b5080fd5b635274afe760e01b83526004829052602483fd5b600114156104b7565b6040513d84823e3d90fd5b606460405162461bcd60e51b815260206004820152602060248201527f416d6f756e74206d7573742062652067726561746572207468616e207a65726f6044820152fd5b62461bcd60e51b815260206004820152601960248201527f496e70757420746f6b656e206e6f7420737570706f72746564000000000000006044820152606490fd5b600435906001600160a01b038216820361061557565b600080fd5b90601f8019910116810190811067ffffffffffffffff82111761063c57604052565b634e487b7160e01b600052604160045260246000fd5b6000546001600160a01b0316330361066657565b63118cdaa760e01b6000523360045260246000fdfea26469706673582212205826d8a26ed2e9a894a662457024bd7dbefbc505daa1df9657018d7e6472d3be64736f6c634300081a0033",
  "linkReferences": {},
  "deployedLinkReferences": {}
}